:0300000002086093
:080003000220038E828F83228C
:08000B0002200BAE82AF83223C
:08001300022013742D01760098
:08001B0002201B1176017400A4
:080023000220231116017400F4
:03002B0002202B85
:10002E00216A0176016A216721792186018D01D12C
:10003E0021BA219A0208F9020B1801800201A702C7
:10004E000A61020A67020AA502082202079F020736
:10005E00C10207F80209E0214D0207DF3098FDC208
:10006E0098E59922117474203099FDC299F5992260
:02007E001180EF
:0E008000C0E0740D1176740A1176D0E022C231
:10008E00D51162319AB41B03D3E422B40D05D2D537
:10009E00C3E422FA314D40E9CA11761162319AB4A5
:1000AE001B0280E4B40D03EAC322B4080411768067
:1000BE00D0B4150280F7FB314D40E0CB1176EAC487
:1000CE004BC3227A007B007C04C2D51162319AB4F4
:1000DE001B07D3E4F583F58222B408028003B47FB4
:1000EE000CBC040280E51176313C0C80DEB40D10A0
:0200FE008B83F2
:0E0100008A82BC0407E4F583F582D2D5C322BF
:10010E00FD314D40C6CD120076EDC0E0312BD0E072
:10011E002AFAE43BFBDCB4C38A828B8322EBC45401
:10012E00F0FBEAC4540F4BFBEAC454F0FA22EAC4C3
:10013E00540FFAEBC454F04AFAEBC4540FFB2224CA
:10014E00D0501424F64004240AC32224F950082463
:10015E00FA40042410C322D3223169C4C0E0540FE4
:10016E002490D43440D41176D0E022C0E0E583311F
:02017E0067E533
:0E018000823167D0E022C0E0E493A3600AA2BF
:10018E00E7547F1176400280F1D0E022B461004046
:10019E0007B47B00500224E0227800C0E0E49360B4
:1001AE0008A2E7084003A380F4D0E022C0E0C330E9
:1001BE009808E599B41B01D3C298D0E022900DB9EE
:1001CE001145EF3167EE316731861162B43A045151
:1001DE00B880EA319A75F0CBC0F075F001C0F0F539
:1001EE00F0901000F1F85024758204E493B4FE15DB
:0201FE00058278
:0E020000E493B5F00E117475822031861180E2
:10020E00758240E4730583E583B480D8E5F0B43F8E
:10021E0007900F211145A1C7B44D07900F29114525
:10022E0081B8B45207900F2E1145A12FB4440790F8
:10023E000F321145419BB45507900F351145C13C06
:10024E00B44E07900F381145E12EB44A07900F3C7B
:10025E001145810DB44807900F4211458141B445B7
:10026E0007900F4E11458182B44307900F531145ED
:02027E00E10A93
:0E028000B45A0B74006012900F571145E13E06
:10028E00B44908900F4811450207640180900E533F
:10029E0011459104116AB41B028078B43A028010A1
:1002AE00314D40F07906713380EA745E1176910417
:1002BE00790071337C007152F8742E11767152F5FB
:1002CE00837152F5827152B40102802D7022E86062
:1002DE00147152FA79017133EA120822E43402F9E8
:1002EE007133A3D8E97152EC60AA7904713380A4FA
:0202FE00E860B6
:0E030000F27152D8FC80ECE860047152D8F320
:10030E007152EC70E5712A900E72114530987A1187
:10031E006A8076712A900E6A1145806D7800790098
:10032E00D9FED8FA22E95407232410F907E7700200
:10033E00090722D3878209878309E5827005E58341
:10034E007001C322116A319AB41B06D0E0D0E0804E
:10035E00C2B43A0A79057133D0E0D0E041C2314DD2
:10036E0050067907713380DCFA116A319AB41B0298
:02037E0080D924
:0E038000B43A0280DD314D50067907713380AA
:10038E00E8CAC44AFA2CFCEA22EEC0E0EFC0E090C4
:10039E000E79114579107E827F0E91007E887F0E38
:1003AE0091007E8D7F0E91007A0571414009DAFA37
:1003BE00900EC911458025900E98114579167E9C98
:1003CE007F0E71F27EAD7F0E71F27EB57F0E71F2F1
:1003DE007EBB7F0E71F27EC07F0E71F2D0E0FFD039
:1003EE00E0FE0180714150091174120AA511061127
:0203FE00452296
:0E040000714180F27810760008B820FA229040
:10040E000DFB114511063179900DC9114511D12001
:10041E00D5065002E105110E1180900ED71145112F
:10042E0006E4F5D0F5F07807F6D8FD758108C0E042
:10043E00C0E0737A10117E11063179743A111E7B69
:10044E00101106E493A331671174DBF711727B1060
:10045E001106E493A3547FB47F01E424E04001E449
:10046E0024201176DBEC1180D1C1110E31BA40027D
:02047E00DAC5DD
:0E0480000180900E3D114511063179743A113C
:10048E001E74281176110EE4933167900E161145E5
:10049E00118D20D510400E11061208221180110662
:1004AE00A3110E8189900E480145900E05114578D5
:1004BE00151174D8FC1145758310F1F840020180B6
:1004CE001172758220318675822031A77421C398EE
:1004DE00F874201176D8FC75820031797806742074
:1004EE001176D8FC758204E493AA83B4FE05900FAE
:0204FE000F806D
:0E05000018B4FD05900F168010B42305900F5F
:10050E00138008B4F90280EE900F1D11458A8311F5
:10051E0080747FB5830281CC0583E583B4809B8193
:10052E00CC117E7AFF90100015830583E583B4808D
:10053E00028021F1F8501D758204E4934403F460A7
:10054E00E911720A74412A111E1126758220318614
:10055E001180A138BAFF05900DD20145900DC4113E
:10056E004574411176111674412A1176900DC911F8
:02057E00451125
:0E05800062B41B020180FB741FC39AEB4002A1
:10058E00319A1176FB1180EB24BF50D0FBEAC39B4E
:10059E0040CA0B90100015830583E583B48002805A
:1005AE0017F1F85013758204E4934403F460E9DB09
:1005BE00E71180758240812F22900EF711457C3F06
:1005CE00900F24D1317C4DD1317C52D1317C44D12C
:1005DE00317C55D1317C4ED1317C4AD1317C48D1E0
:1005EE00317C49D1317C45D1317C43D131740060AD
:0205FE00047C7B
:0E0600005AD131900F051145901000F1F850BD
:10060E0020758204E493B4FE1111720582E49311F5
:10061E00761126758220318611800583E583B4809C
:10062E00DC01801172EC1176112611450180D1D3B7
:10063E00900EE11145EB3167EA31671145ED3167F7
:10064E00EC316711808D838C82A3AC82AD83900DCB
:10065E00F11145116AB41B02E10311808A828B836A
:10066E00ECC39582FAED95837009EA603254F0700E
:02067E000280F8
:0E068000027A10743A1176EA31673179E58317
:10068E0025822AFBE43167E49331672BFBA3DAF76B
:10069E00EBF40431671180D1C131BA50C380567466
:1006AE003A1176E431673167316704316774FF318F
:1006BE0067017EE8C0E0780CE58C04000070FBD882
:1006CE00F7D0E0F822117E900E1F114511D1402176
:1006DE0020D51EC083C0821180900E29114511D1E4
:1006EE00AD83AC82D0E0FAD0E0FB400520D502010C
:0206FE0080D0AA
:0E070000E0D0E01180900DB10145D1D3900EF4
:10070E003311451162319AB459EB117E8B838A8273
:10071E00E4120822EDB58305ECB5820122A380F028
:10072E00900DE8114511D140CE20D5CB110E017E92
:10073E00117E900F571145742C111E900E331145DA
:10074E001162319AB459AE117E1207C1900F5C50EE
:10075E0003900F630145118078001180B88002016B
:10076E0080E83167743A11761174E6316708E854FF
:02077E000F70FA
:0E078000F580E5C0F0E493F5F00DE493B5F0DC
:10078E00F8D0F02290D55574AAF090AAAA7455F01C
:10079E0022C8C0E0C082C083F19290D55574A0F0FB
:1007AE00D083D082E8F0F183E493C3686001D3D0A4
:1007BE00E0C82290D5557410F1DF908000E493F4D8
:1007CE00700DA37400B582F57400B583F0C322D307
:1007DE0022C0E0C082C083F19290D5557480F0F1B2
:1007EE0092D083D082D0E0F0E183758200E493B49E
:0207FE00A5173D
:0E080000A3E493B4E511A3E493B4E00BA3E4E6
:10080E0093B4A505758200D322747FB58302C322EB
:10081E00058380D6C0E0C0F0F5F074006010E5836B
:10082E00B4FF0280225007B48002801B5019E5F0FD
:10083E00F0E493C395F06009E0C395F06003D380B4
:10084E0001C3D0F0D0E022E5F012079FD0F0D0E047
:10085E002232438E0CE4F5A8F5B875D000115F1165
:10086E005FF4F580F590F5A0F5B075813079C87A12
:02087E00F9DAA5
:0E088000FED9FA740060137400600F78FAA2BB
:10088E000079C8D9FE4005D8F61207C175F0F911E6
:10089E00CC11F975F0FD11CC7818120080D8FB78C8
:1008AE000F7420120076D8FB900D7A120B18900D53
:1008BE0093120B181204B87E007F200201CB901009
:1008CE00001207F85024758204E493B5F015C0F0B9
:1008DE00C08374EDC0E07408C0E0758240E473D04C
:1008EE0083D0F00583E583B480D72274007014E5BD
:0208FE007B631A
:0E0900007A556379CC63781DB57A08B5790510
:10090E00B5780221BF758780759842758911E4F517
:10091E0088F58AF58CF58BF58D78C8791E30B0E5A3
:10092E00D9FBD8F720B0FD20B0FA20B0F720B0F4F4
:10093E0020B0F130B0FDD28E208FCA20B0FA208FB9
:10094E00C430B0FA208FBE20B0FAD28C208FB630D1
:10095E00B0FAC28EC28C208FACE58B33F5F0E58DEC
:10096E003340A2A2F73400F404609AF58D758BFF24
:02097E00758979
:0E09800021D29CD28EE58DF404F978FFD8FECA
:10098E00D9FA309811C298E599547F24F66007245D
:10099E00056003020913E58A33F8E58C33F940F359
:1009AE00E833F5F0E933A2F7340060E7F404B58DCF
:1009BE00E2F57BF57AF579F578637A556379CC6350
:1009CE00781DF58DF58B758921758780759852D2B6
:1009DE008E2230980612006AB41B5112006AB41BA4
:1009EE004B514E209803741B2212006AB45B445183
:0209FE004E3079
:0E0A000098DE12006AB44103740B22B4420364
:100A0E00740A22B44303741522B44403740822B446
:100A1E0035028007B4360280028018C0E0514E3095
:100A2E00980B12006AB47E09D0E024E422D0E08054
:100A3E00A1D0E0514E30989A12006AB41BF580A1F5
:100A4E00EAC0E07A14E58C2098050470FADAF6D044
:100A5E00E0FA22C0F0C0E08013C0F0C0E030E70C36
:100A6E00742D120076D0E0C0E0F4240175F0648499
:020A7E00D2D5CF
:0E0A80006007C2D52430120076E5F075F00A4A
:100A8E008430D50260052430120076E5F024301251
:100A9E000076D0E0D0F022C0E0E8C0E0C2D5AA8255
:100AAE00AB837C107D27710360072430120076D251
:100ABE00D57CE87D037103700330D5072430120016
:100ACE0076D2D57C647D007103700330D507243057
:100ADE00120076D2D5EAABF075F00A84700330D5E9
:100AEE00052430120076E5F08BF02430120076D01B
:020AFE00E0F81E
:0E0B0000D0E022780008C3EA9CFAEB9DFB507F
:100B0E00F618EA2CFAEB3DFBE822C0E0E8C0E0E97B
:100B1E00C0E0ECC0E0D2D1D2D5E493A3602520E7AB
:100B2E002E547FB40D07120080D2D180ECB41F0476
:100B3E00C2D580E5B40E051200808007C2D1120026
:100B4E007680D6D0E0FCD0E0F9D0E0F8D0E02254A8
:100B5E007FF820D103120074C2D1C082C083900BE3
:100B6E00D27C00E86007F971C170FCD9FA71C160DE
:020B7E003CB485
:0E0B80000F1271C10483801E68667767796268
:100B8E0078766B716A7A0483800E657461726E6911
:100B9E00736F6C756D706463A2D592E5D2D5B8147F
:100BAE0002C2E5B80C02C2E512007680C0D083D036
:100BBE00826127E493BC00057CFF540F227C00A3C6
:100BCE00C4540F228290E82386054CF844B3B0B18A
:100BDE00485FF0117FA0157F1C2ED1405A50F103B3
:100BEE00BFBA0C2F96018D3F95380D6F5F120771AE
:020BFE000E5691
:0E0C00002F483B6258201F7670322440B840C7
:100C0E00E1618F01340BCA89D3C0A3B9588004F8AF
:100C1E000285602591F092731F107F125493104439
:100C2E004807D126564FD0F66472E0B83BD5F01681
:100C3E004F56306F48025FA8201F017630D56025D1
:100C4E0041A42C60056F013F261F30078E1DF063F7
:100C5E0099F042B8201F2330027AD1602FF0F605AA
:100C6E008F931A5028F082046FA30D3F1F5140231B
:020C7E00013E35
:0E0C80000543017A01176493302A088C243052
:100C8E0099B0F31960254135098ECB191230051F25
:100C9E00311D04144F761204AB279056012FA8D5A0
:100CAE00F0AA26205F1CF0F361FE0141730127C1FB
:100CBE00C0848FD6018770564F19701FA8D99076B1
:100CCE00021743FE01C1840B157F028B14308F6314
:100CDE00396F19F011C9106D023F91097A41D0BADE
:100CEE000C1D395F07F2111720416B3509F775128C
:020CFE000BA742
:0E0D0000CC48023F6412A00C27E39FC014777A
:100D0E007011407121C0682541F0627FD1D021E180
:100D1E006258B0F3051F733077B16F19E01943E0D5
:100D2E00582FF6A414D02303FE31F5143099F8038E
:100D3E003F6422516025412FE30156279309FE118E
:100D4E00FE79BA607542EA6258A0E51F534FD1C0D2
:100D5E00A3094253F71204621B30F505F7690C35EF
:100D6E001B70822F2F144F51C064250057656C6382
:020D7E006F6D97
:0E0D8000658094322076322E312C2062791F4D
:100D8E00F81FFE0D0E202053656594322E444F43FE
:100D9E002C94322E455155A494322E484452B4D53B
:100DAE008D2E0E201F9E1FA0210D0E9432204C6FF3
:100DBE00633A00203EA086CA822800292C958C809A
:100DCE00C83A20001F9782C373C7A6832CBA204A45
:100DDE00554D508086A172820D0E0D0D1F87838199
:100DEE003A20001FE4FB206B65793A20000D0D1FA1
:020DFE008880EB
:0E0E000083812028000D0D1F821FFD001F8121
:100E0E0020202020201FC90E29201F871FB23A2024
:100E1E000046697273741F813A20004C6173741F0F
:100E2E00813A2020001FB9A120737572653F000D15
:100E3E000D1F9C9A922C8C80C80E20201F9CC12CBA
:100E4E008E81F70D0E0D0D1F9F206173636969F979
:100E5E00961F9884892C958C80A00D0E0D1F8AA04C
:100E6E0065640D0E0D1F8AC1640D0E53756D6D6197
:020E7E00727987
:0E0E80003A0E20C67391640E208B91640E20F2
:100E8E008B207772697474656E0E1F9B3A0E208BE1
:100E9E0020756E61626C65802077726974650E20B4
:100EAE0020626164F5730E20859F96C60E208584A0
:100EBE009D0E2085206E6F6E849D0E1F979B206465
:100ECE00657465637465640D0E0D866E696E67825A
:100EDE003A0D0E0D0D53656E64696E671F98848909
:100EEE00AC20200020802020000D0D5374616E6414
:020EFE0061721F
:0E0F0000641F9E730E1FDA1FF465641F9E733C
:100F0E000E1F9A9E001F82001F8F1FE21FAA003F16
:100F1E003F3F001FD7001F8ED7D1001FD182730015
:100F2E001F8682001F8A001F93001F8781001F8863
:100F3E00808381001F84DB9A83001F84DBC08300C3
:100F4E001F9C9A92001FED83001FCB9990001F9952
:0A0F5E0090CB640D0E1F859B0D0E55
:10100000A5E5E0A5FE4C0000000000000000000087
:10101000000000000000000000000000FFFFFFFFD4
:081020004C69737400020048E2
:1010400011257D14C2D1114CDDFC0125EFF5835132
:101050004FEEF582514FE493FAA3E493FBA3E4939C
:10106000FCEA5408700FEA035478F8EA54074890F1
:101080002EFEEF3400FF743A512A719D20D121EADF
:10109000514F719DB80104790B8011EB514F719D37
:1010A000B8020479088005EC514F7906719DD9FC8E
:1010B000EA54087010901748EA035478F8EA540785
:1010C0004893F980099017C8EAC4540F93F9901E09
:1010D000FE7808C374204007E99309A2E7547F51C2
:1010E0002AD8F1741BC0E07411C0E0EA5408700FF4
:10110000C4540F9013629354FC03031490111D23D5
:101110002582F582E43583F583E4730125412D4171
:101120003C21812172414841044152415821A22170
:10113000D7415E4169416D4108411021AA218321B7
:101140007441714177417D413E411C418121DF4124
:101150001441C54185418B41914195419B41A94134
:10116000AF41B541BB410C41BF41CB41D741E74104
:101180004531F6EB20E703EB414F9012F5E493A3D2
:1011900060F5F8C39B7003020038E493A330E7FACC
:1011A00080EB511031F8742F512AEB547823C4F896
:1011B000EB54806014901372E893901F933582F57E
:1011C000825002058331978005E82420514F742E08
:1011D000512AEB5407414531F6318331F8ECFBEBF2
:1011E0002EF582EB20E703E48002E4F43FF583026E
:101200007423412A318331F87441412A31AA31F8DB
:101210007443412A31F25108742B512A7444512AE3
:101220007450512A7454512A7452020030EF54F809
:10123000F8EAC403540748514FEB414F31F674525A
:10124000512AEA540702002E510831F85100EB02EE
:1012500000343183ECFB414A511031F821AA510886
:1012600031F85100EB514F21DB513E416031744167
:10128000DB31AA21DB513E31F84108513E31F821D2
:1012900083513E414A318331F8413EEBC0E0ECFBE3
:1012A000318331F8D0E0FB2183318331F82174316F
:1012B0007431F84108317431F821833174414A5155
:1012C0001C31F85100EB514FEC414F31F631F251E6
:1012D00008742B512A411C31F631F25108742B51FC
:1012E0002A7450512A411031F631F2411C31F25129
:10130000834450C88050B09050B1A050B2B050B398
:1013100099534255C6CD5448B2C85432434FCECCEF
:10132000544CB2CB5243415032C8CA52434150325E
:10133000CC8C5448B08A544CB08D5448B18B544C2A
:10134000B1F0C2D05053D7A849C5B849D089544D3F
:101350004FC48854434FCE9853434FCE8750434F8A
:10136000CE00595909090909097A7E0976330952CB
:101380002425F8F0E493C398227950E58DF404F80D
:10139000D8FED9F722514F743A412A514F74204157
:0113A0002A22
:10140000A5E5E0A5FE53000000000000000000007C
:10141000000000000000000000000000FFFFFFFFD0
:0C14200053696E676C652D537465700095
:1014400030B306901D85020045900013E49324FEFE
:101450006005901DA88146A393F8E4A393F58288C4
:101460008374027182700EA3741471827007A37466
:101480004FE8514F0125E5B85404F5B8901D689117
:1014900046EF514FEE514F901D52914612003C20A5
:1014A000D50D5007901D7131970125AE82AF83C2D3
:1014B0008A901DC49146901EBC3197E4758108C086
:1014C000E0C0E08E828F83F5D0F8F9FAFBFCFDFED8
:1014D000FFF5F0757CDD757D14D2AAD2AF737189EA
:1014E000D0E0F9D0E0F8D082D083D0D0D0E032C0C4
:1015000099719D719DE58124FBF8E6719BE5F07171
:101510009B08E62354015145719D08E6514F08E6AA
:10152000719B719D08E6719508E67195EA7195EBDE
:101530007195EC7195ED7195EE7195EF719B719DC3
:10154000E824F8719B719D719DE57C8E7CFEE57DA4
:101550008F7DFFEAC0E0EBC0E0ECC0E0D2D1114CDF
:10156000D0E0FCD0E0FBD0E0FAAF7DAE7CE581249A
:101580000D0281DEB4200281DEB43F07901E35914A
:1015900046A179B45113901EB53197C2AA718975CD
:1015A000080075090075810932B44802A1CDB45212
:1015B00002A1FDB45302C167B44102C1AAB42E070F
:1015C000901EBC3197A179A179743D412A901E03E8
:1015D0003197E47195719DA88118E6719B08E651D9
:1015E0004F7802790EA1ECE871957910719DE65162
:101600003197B1C9E58124FCF8E6719B901348A895
:10161000A8D16090134BA8B8D16090134EA889D17F
:1016200060901353A888D160901358A898D1609007
:10163000135DA887D1607454512A7430512AB1C9FE
:10164000E58C514FE58A514F719D7454512A743184
:10165000512AB1C9E58D514FE58B514F1125A17923
:101660003197B1C9E8619B7817719DD8FC901DEB4B
:10168000EAC0E0EBC0E0ECC0E0D2D1114CD0E0FC0D
:10169000D0E0FBD0E0FAE58124F9F8EEAE7CF57CF1
:1016A000F608EFAF7DF57DF6A179E58124FBF89092
:1016B0001E25319712003A400820D505F61125A1C4
:1016C00079901D713197A179AD066F393946494935
:1016D00063066F39394649496306AD39160E111153
:1016E0006306AD39160E111166061A1F160E11117A
:1017000066062269161F9292660622A14D8386867E
:101710009B06969D160E11112606225D4DAD8E8EEE
:101720002606423D2F2B37374606423D390E111112
:101730004606423D39571111A5061111390E1111F6
:10174000A9068989391A89895A0E48732B2B2B2BA4
:1017500030004375212121212E0E676E06060606F4
:1017600038006A700A0A0A0A330E5D5D5D5D5D5DD0
:101780003E005D354C4C4C4C7C0E124F244C4C4C66
:101790004C004C4F808080805D0E4C2B57924C4CFF
:1017A00012001C1C15151515630E191984888888DC
:1017B000600078781F278B8B530E5353194C4C4C79
:1017C000530053531C4C4C4C2B21060A5D128F4C7A
:0817D0004C804C1588274C4C9D
:10180000A5E5E0A5FE450000000000000000000086
:10181000000000000000000000000000FFFFFFFFCC
:101820004D656D6F727920456469746F722028561A
:06183000543130302900A4
:101840007C0051C6ECC2E3FC1200623119B41B02E9
:10185000618DB40B024124B40A02414BB408024129
:1018600066B415024195B40C0451C60144B411028A
:1018800051E10144B4040FEC4401FC71CF901D3BC5
:10189000B14651E10144B4070221ECB4050221E054
:1018A000B406022159B4010FEC30E198D2E2FC9168
:1018B00054916471210144B4180FEC30E186C2E206
:1018C000FC9154916471210144B419024141B41A4C
:1018D000024146F5F0EC20E102014430E210E5F06F
:1018E0007198B5F0F48F838E821200564195E5F021
:101900000AE8FDECD2E3FC71210148EDC454F02853
:10191000120056ECC2E3FC4195C0E0EC20E106C2A7
:10192000E3FCD0E02230E3F9D0E0C0E01200401246
:10193000006550EED0E0C0E0B41B0EECC2E3FC71D9
:1019400021D0E0D0E0D0E001448F838E82ED120000
:1019500056ECC2E3FC712180C9EC540270020144D0
:101960009154ECC0E09019C2B14C12003C404820A8
:1019800020D534AC82AD839019DBB14C12003A40C3
:101990002620D523FAECFEEDFFD0E0FC8882898377
:1019A000EA120056EEB5820CEFB5830891549164AB
:1019B00051E10144A380E9D0E0FC9154916471218C
:1019C000014446696C6C1F833B2046697273743A0C
:1019D000200020204C6173743A200020A83A200097
:1019E0009154EC6402FC9164712101449154901A69
:101A000010AE82AF8371CF741471D5916451E1012E
:101A10004471CF741471D59164712101441F831FE7
:101A2000813A2000714DEEC39410FEEF9400FFEE5A
:101A3000F454F06008740171DD7169014451E101F1
:101A4000441F51E101440F51E10144714DEE241056
:101A5000FEEF3400FFEE54F06008740171D5716937
:101A6000014451E10144714D740371E5EEC39401E9
:101A8000F454F0600C743071ED740171DD71690112
:101A90004451E10144714D740371ED8E828F83A333
:101AA000AE82AF83EE540F600471690144EE54F0CE
:101AB000600C743071E5740171D57169014451E1B4
:101AC00001447420A140901CFCB146913BB1499166
:101AD00018B1499132B149741071D59132B149911F
:101AE0006471CF740271D57582008F837810B1490B
:101B000043A3E582540F70F38A828B8351C251C282
:101B100051C271AA7198B140A3E582540F70F3D8F5
:101B2000CD71CFEEC4540F240371D5EE540F243879
:101B300071ED71F571B37198B1409101EE540F23BD
:101B4000F4243471E571F571B3B1438101EE540FA2
:101B500023F4243171ED71B37198B140EE540F2329
:101B6000F4243471E571B3A143EE540F23F424310E
:101B8000F4243471E571B371F5B1438101EE54F081
:101B9000C4F4241371D5A149547FB47F0374202267
:101BA000C3942050027400242022EC20E003E4932C
:101BB00022E022C083C0828F838E82EC20E30D203E
:101BC000E004E4938001E0D082D08322ED80F8919C
:101BD0000B7448A140910BB14F7442A140910BB1DD
:101BE0004F7441A140910BB14F7444A140910BB18E
:101C000000901C06A1461B5B306D00C0E0741BB148
:101C100040745BB140D0E022901D04B14678005181
:101C2000C2742BB140E812002E08B810F2901D0AC1
:101C3000A1467848742DB140D8FA22EC20E00590F6
:101C40001D368003901D3BB146780851C2D8FC90E8
:101C50001D1EA14C71CF741471D57A4851C2DAFCA3
:101C6000744861E5EC30E112901CBC20E203901C4A
:101C80001C84A14620205E473D476F746F20205E74
:101C9000433D436F646520205E443D446174612090
:101CA000205E4C3D52656472617720205E513D514B
:101CB000756974005E452D45646974005E413D1B85
:101CC0005B303B376D41534349491B5B306D2020EE
:101CD0005E583D486578005E413D41534349492087
:101CE000205E583D1B5B303B376D4865781B5B3091
:101D00005B324A00414444523A0020202041534370
:101D10004949204551554956494C414E54003830A7
:101D200035311F9A1F831FD86F722C1FF81FFE2C8E
:101D3000203139393600434F444500444154410075
:101D4000020030020034020038020048020045025E
:101D50000050292C206F72203C4553433E20746F65
:101D600020657869743A20000D1F888083812028BF
:101D8000642E0D0A000DA1C520636F6E6E6563742D
:101D900020494E5431202870696E20313329206C3F
:101DA0006F7780BACFCC0D009432B3C7AE812030AC
:101DB0003031330D001FB8B3FFA520766563746F13
:101DC00072AE20000D4E6F77866E696E67A6CFCC1F
:101DD000206D6F64653A20203C5245543E3DCC2C2A
:101DE000203F3D2048656C700D0D00536B6970708D
:101E00003E20000D0A4C6F633A2020496E74205228
:101E1000414D204D656D6F727920436F6E74656E14
:101E200074730D0A004E6577204163632056616C20
:101E300075653A20000D1FCF1FCC1F9E3A0D3C52F6
:101E400045543E2086D4F60D203C53503E2086D487
:101E5000F60D20273F272020FF8ED70D20272E2785
:101E60002020FFC4FD730D202752272020FF207360
:101E8000730D20274827202084DBC0920D20275384
:101E9000272020FCD4F60D202741272020F0A22067
:101EA0004163632076616C75650D202751272020E2
:101EB000C8CFCC0D0E517569740D0A002020414326
:101EC000432042204320445054522020523020527C
:101ED0003120523220523320523420523520523693
:101EE000205237202053502020204164647220204B
:101F0000414CCC004144C400414444C3414A4DD0FB
:101F1000414ECC434A4EC5434CD24350CC44C144BD
:101F200045C34449D6444A4EDA494EC34AC24A429E
:101F3000C34AC34A4DD04A4EC24A4EC34A4EDA4AF9
:101F4000DA4C43414CCC4C4A4DD04D4FD64D4F56B8
:101F5000C34D4F56D84D55CC4E4FD04F52CC504F0D
:101F6000D0505553C85245D4524554C952CC524C06
:101F800042C2535741D05843C8584348C45852CC12
:101F90003F3FBF50B054434FCE50B153434FCE504C
:101FA000B249C550B349D043B05432434FCE5053D9
:091FB000D744B84143C3FDC2FE51
:00000001FF
